{
  "_format": "hh-sol-artifact-1",
  "contractName": "ThreatLog",
  "sourceName": "contracts/ThreatLog.sol",
  "abi": [
    {
      "anonymous": false,
      "inputs": [
        {
          "indexed": true,
          "internalType": "string",
          "name": "urlHash",
          "type": "string"
        },
        {
          "indexed": false,
          "internalType": "string",
          "name": "ipfsHash",
          "type": "string"
        },
        {
          "indexed": false,
          "internalType": "uint256",
          "name": "timestamp",
          "type": "uint256"
        },
        {
          "indexed": false,
          "internalType": "address",
          "name": "reporter",
          "type": "address"
        }
      ],
      "name": "LogAdded",
      "type": "event"
    },
    {
      "inputs": [
        {
          "internalType": "string",
          "name": "_urlHash",
          "type": "string"
        },
        {
          "internalType": "string",
          "name": "_ipfsHash",
          "type": "string"
        }
      ],
      "name": "addLog",
      "outputs": [],
      "stateMutability": "nonpayable",
      "type": "function"
    },
    {
      "inputs": [],
      "name": "getLogsCount",
      "outputs": [
        {
          "internalType": "uint256",
          "name": "",
          "type": "uint256"
        }
      ],
      "stateMutability": "view",
      "type": "function"
    },
    {
      "inputs": [
        {
          "internalType": "string",
          "name": "_urlHash",
          "type": "string"
        }
      ],
      "name": "isLogged",
      "outputs": [
        {
          "internalType": "bool",
          "name": "",
          "type": "bool"
        }
      ],
      "stateMutability": "view",
      "type": "function"
    },
    {
      "inputs": [
        {
          "internalType": "uint256",
          "name": "",
          "type": "uint256"
        }
      ],
      "name": "logs",
      "outputs": [
        {
          "internalType": "string",
          "name": "urlHash",
          "type": "string"
        },
        {
          "internalType": "string",
          "name": "ipfsHash",
          "type": "string"
        },
        {
          "internalType": "uint256",
          "name": "timestamp",
          "type": "uint256"
        },
        {
          "internalType": "address",
          "name": "reporter",
          "type": "address"
        }
      ],
      "stateMutability": "view",
      "type": "function"
    }
  ],
  "bytecode": "0x608060405234801561001057600080fd5b50610cd4806100206000396000f3fe608060405234801561001057600080fd5b506004361061004c5760003560e01c80635676cc3214610051578063a273079a14610081578063cc9e300f1461009d578063e79899bd146100bb575b600080fd5b61006b6004803603810190610066919061054e565b6100ee565b60405161007891906105b6565b60405180910390f35b61009b600480360381019061009691906105d1565b61019f565b005b6100a5610363565b6040516100b2919061066b565b60405180910390f35b6100d560048036038101906100d091906106b2565b61036f565b6040516100e594939291906107b0565b60405180910390f35b600080600090505b600080549050811015610193578383604051602001610116929190610842565b60405160208183030381529060405280519060200120600082815481106101405761013f61085b565b5b90600052602060002090600402016000016040516020016101619190610982565b6040516020818303038152906040528051906020012003610186576001915050610199565b80806001019150506100f6565b50600090505b92915050565b6000604051806080016040528086868080601f016020809104026020016040519081016040528093929190818152602001838380828437600081840152601f19601f82011690508083019250505050505050815260200184848080601f016020809104026020016040519081016040528093929190818152602001838380828437600081840152601f19601f8201169050808301925050505050505081526020014281526020013373ffffffffffffffffffffffffffffffffffffffff168152509080600181540180825580915050600190039060005260206000209060040201600090919091909150600082015181600001908161029e9190610b5f565b5060208201518160010190816102b49190610b5f565b506040820151816002015560608201518160030160006101000a81548173ffffffffffffffffffffffffffffffffffffffff021916908373ffffffffffffffffffffffffffffffffffffffff16021790555050508383604051610318929190610842565b60405180910390207fe7982d9297402dfcc5b3ef784daf8cd01ea701a10048b02e73aaaace07b0cb20838342336040516103559493929190610c5e565b60405180910390a250505050565b60008080549050905090565b6000818154811061037f57600080fd5b90600052602060002090600402016000915090508060000180546103a2906108b9565b80601f01602080910402602001604051908101604052809291908181526020018280546103ce906108b9565b801561041b5780601f106103f05761010080835404028352916020019161041b565b820191906000526020600020905b8154815290600101906020018083116103fe57829003601f168201915b505050505090806001018054610430906108b9565b80601f016020809104026020016040519081016040528092919081815260200182805461045c906108b9565b80156104a95780601f1061047e576101008083540402835291602001916104a9565b820191906000526020600020905b81548152906001019060200180831161048c57829003601f168201915b5050505050908060020154908060030160009054906101000a900473ffffffffffffffffffffffffffffffffffffffff16905084565b600080fd5b600080fd5b600080fd5b600080fd5b600080fd5b60008083601f84011261050e5761050d6104e9565b5b8235905067ffffffffffffffff81111561052b5761052a6104ee565b5b602083019150836001820283011115610547576105466104f3565b5b9250929050565b60008060208385031215610565576105646104df565b5b600083013567ffffffffffffffff811115610583576105826104e4565b5b61058f858286016104f8565b92509250509250929050565b60008115159050919050565b6105b08161059b565b82525050565b60006020820190506105cb60008301846105a7565b92915050565b600080600080604085870312156105eb576105ea6104df565b5b600085013567ffffffffffffffff811115610609576106086104e4565b5b610615878288016104f8565b9450945050602085013567ffffffffffffffff811115610638576106376104e4565b5b610644878288016104f8565b925092505092959194509250565b6000819050919050565b61066581610652565b82525050565b6000602082019050610680600083018461065c565b92915050565b61068f81610652565b811461069a57600080fd5b50565b6000813590506106ac81610686565b92915050565b6000602082840312156106c8576106c76104df565b5b60006106d68482850161069d565b91505092915050565b600081519050919050565b600082825260208201905092915050565b60005b838110156107195780820151818401526020810190506106fe565b60008484015250505050565b6000601f19601f8301169050919050565b6000610741826106df565b61074b81856106ea565b935061075b8185602086016106fb565b61076481610725565b840191505092915050565b600073ffffffffffffffffffffffffffffffffffffffff82169050919050565b600061079a8261076f565b9050919050565b6107aa8161078f565b82525050565b600060808201905081810360008301526107ca8187610736565b905081810360208301526107de8186610736565b90506107ed604083018561065c565b6107fa60608301846107a1565b95945050505050565b600081905092915050565b82818337600083830152505050565b60006108298385610803565b935061083683858461080e565b82840190509392505050565b600061084f82848661081d565b91508190509392505050565b7f4e487b7100000000000000000000000000000000000000000000000000000000600052603260045260246000fd5b7f4e487b7100000000000000000000000000000000000000000000000000000000600052602260045260246000fd5b600060028204905060018216806108d157607f821691505b6020821081036108e4576108e361088a565b5b50919050565b60008190508160005260206000209050919050565b6000815461090c816108b9565b6109168186610803565b94506001821660008114610931576001811461094657610979565b60ff1983168652811515820286019350610979565b61094f856108ea565b60005b8381101561097157815481890152600182019150602081019050610952565b838801955050505b50505092915050565b600061098e82846108ff565b915081905092915050565b7f4e487b7100000000000000000000000000000000000000000000000000000000600052604160045260246000fd5b60006020601f8301049050919050565b600082821b905092915050565b600060088302610a157fffffffffffffffffffffffffffffffffffffffffffffffffffffffffffffffff826109d8565b610a1f86836109d8565b95508019841693508086168417925050509392505050565b6000819050919050565b6000610a5c610a57610a5284610652565b610a37565b610652565b9050919050565b6000819050919050565b610a7683610a41565b610a8a610a8282610a63565b8484546109e5565b825550505050565b600090565b610a9f610a92565b610aaa818484610a6d565b505050565b5b81811015610ace57610ac3600082610a97565b600181019050610ab0565b5050565b601f821115610b1357610ae4816108ea565b610aed846109c8565b81016020851015610afc578190505b610b10610b08856109c8565b830182610aaf565b50505b505050565b600082821c905092915050565b6000610b3660001984600802610b18565b1980831691505092915050565b6000610b4f8383610b25565b9150826002028217905092915050565b610b68826106df565b67ffffffffffffffff811115610b8157610b80610999565b5b610b8b82546108b9565b610b96828285610ad2565b600060209050601f831160018114610bc95760008415610bb7578287015190505b610bc18582610b43565b865550610c29565b601f198416610bd7866108ea565b60005b82811015610bff57848901518255600182019150602085019450602081019050610bda565b86831015610c1c5784890151610c18601f891682610b25565b8355505b6001600288020188555050505b505050505050565b6000610c3d83856106ea565b9350610c4a83858461080e565b610c5383610725565b840190509392505050565b60006060820190508181036000830152610c79818688610c31565b9050610c88602083018561065c565b610c9560408301846107a1565b9594505050505056fea2646970667358221220d1cf96d0189e1e981e4a99b466d657f1caebaa7cf4e6182afed3a76eea0e9fca64736f6c63430008180033",
  "linkReferences": {},
  "deployedLinkReferences": {}
}